:100000000C9456000C9475000C9475000C947500BB
:100010000C9475000C9475000C9475000C9475008C
:100020000C9475000C9475000C9475000C9475007C
:100030000C9475000C94EE000C9475000C947500F3
:100040000C9475000C9475000C9475000C9475005C
:100050000C9475000C9475000C9475000C9475004C
:100060000C9475000C9475000C9475000C9475003C
:100070000C9475000C9475000C9475000C9475002C
:100080000C9475000C9475000C9475009F01A601EA
:10009000B301C001CD01DA01E701F4015B021802EE
:1000A0002002290232025B023B025B0211241FBEC6
:1000B000CFEFD0E4DEBFCDBF11E0A0E0B1E0E4E3DC
:1000C000F5E000E00BBF02C007900D92A231B1072E
:1000D000D9F721E0A2E1B1E001C01D92AA31B20737
:1000E000E1F70E9463020C9498020C940000CF93F5
:1000F000DF9300D01F92CDB7DEB789837B836A83FD
:1001000089818A3031F48A819B81BC018DE00E9413
:10011000770080EC90E0FC018081882F90E0807275
:100120009927892BB1F386EC90E02981FC0120838B
:1001300080E090E00F900F900F90DF91CF910895A5
:10014000CF93DF93CDB7DEB781E890E02BE0FC01E1
:10015000208388E890E02DE730E0FC0131832083A4
:100160008FE690E022E0FC01208384E890E0FC012F
:100170001182108280910E0190910F01A0911001C7
:10018000B09111018093130190931401A093150174
:10019000B09316018FE590E02FE530E0F901208162
:1001A0002068FC0120830000DF91CF910895CF9358
:1001B000DF93CDB7DEB781E890E0FC01108200004C
:1001C000DF91CF910895CF93DF93CDB7DEB781E074
:1001D000809312010000DF91CF9108951F920F923A
:1001E00000905F000F92112400905B000F922F93FC
:1001F0003F934F935F936F937F938F939F93AF93AF
:10020000BF93EF93FF93CF93DF93CDB7DEB780918A
:10021000130190911401A0911501B091160101975D
:10022000A109B1098093130190931401A0931501C2
:10023000B09316018091130190911401A0911501C2
:10024000B0911601892B8A2B8B2B91F40E94E3002D
:1002500080910E0190910F01A0911001B0911101B8
:100260008093130190931401A0931501B09316018C
:100270000000DF91CF91FF91EF91BF91AF919F91DE
:100280008F917F916F915F914F913F912F910F903F
:1002900000925B000F9000925F000F901F901895E6
:1002A000CF93DF9300D000D0CDB7DEB769837A83D8
:1002B0008B839C8389819A81AB81BC8180930E0161
:1002C00090930F01A0931001B093110180910E0142
:1002D00090910F01A0911001B09111018093130131
:1002E00090931401A0931501B093160100000F9094
:1002F0000F900F900F90DF91CF910895CF93DF93E0
:100300001F92CDB7DEB780E290E0FC01808180953E
:1003100089838091180190911901CC01A0E0B0E08F
:1003200040E050E027E030E0841B950B28173907A8
:1003300008F467C08A5B9F4FFC010C948F0281E038
:1003400090E090931901809318015CC089818130FD
:1003500019F485E090E002C082E090E090931901EA
:10036000809318014FC08981813019F485E090E0B5
:1003700002C083E090E0909319018093180142C07D
:100380008981813019F485E090E002C084E090E03A
:10039000909319018093180135C08981813019F437
:1003A00085E090E002C081E090E090931901809395
:1003B000180128C08981882319F486E090E002C0E2
:1003C00085E090E090931901809318011BC089810A
:1003D000813019F487E090E002C086E090E09093CD
:1003E0001901809318010EC08981882319F481E0D6
:1003F00090E002C087E090E090931901809318018B
:1004000001C000008091180190911901CC01A0E079
:10041000B0E040E050E027E030E0841B950B281767
:10042000390708F446C0825B9F4FFC010C948F0291
:100430001092170185E290E021E0FC0120833EC08C
:1004400081E08093170185E290E022E0FC012083A7
:1004500035C082E08093170185E290E024E0FC0142
:1004600020832CC081E08093170185E290E022E098
:10047000FC01208323C080911701882331F485E299
:1004800090E021E0FC01208318C0809117018130A9
:1004900031F485E290E022E0FC0120830EC08091DF
:1004A0001701823051F485E290E024E0FC012083C2
:1004B00004C0000003C0000001C0000000000F9055
:1004C000DF91CF910895CF93DF93CDB7DEB784E26C
:1004D00090E02FEFFC01208385E290E0FC01108288
:1004E00081E290E0FC01108282E290E02FEFFC01BB
:1004F00020836CE271E080E090E00E9450010E9455
:10050000A00010921901109218010E947E010000B3
:10051000809112018823E1F310921201F6CFEE0FC1
:10052000FF1F0024001C0BBE0790F691E02D0994DC
:04053000F894FFCF6D
:10053400000000020000000077000000000001003D
:020544000000B5
:00000001FF
