:100000000C9446000C9465000C9465000C946500FB
:100010000C9465000C9465000C9465000C946500CC
:100020000C9465000C9465000C9465000C946500BC
:100030000C9465000C94DE000C9465000C94650033
:100040000C9465000C9465000C9465000C9465009C
:100050000C9465000C9465000C9465000C9465008C
:100060000C9465000C9465000C9465000C9465007C
:100070000C9465000C9465000C9465000C9465006C
:100080000C9465000C9465000C94650011241FBE4F
:10009000CFEFD0E4DEBFCDBF11E0A0E0B1E0E8E2F9
:1000A000F7E000E00BBF02C007900D92A431B1074A
:1000B000D9F721E0A4E1B1E001C01D92AC31B20753
:1000C000E1F70E9461030C9492030C940000CF931B
:1000D000DF9300D01F92CDB7DEB789837B836A831D
:1000E00089818A3031F48A819B81BC018DE00E9434
:1000F000670080EC90E0FC018081882F90E08072A6
:100100009927892BB1F386EC90E02981FC012083AB
:1001100080E090E00F900F900F90DF91CF910895C5
:10012000CF93DF93CDB7DEB781E890E02BE0FC0101
:10013000208388E890E02DE730E0FC0131832083C4
:100140008FE690E022E0FC01208384E890E0FC014F
:100150001182108280910E0190910F01A0911001E7
:10016000B09111018093150190931601A09317018E
:10017000B09318018FE590E02FE530E0F901208180
:100180002068FC0120830000DF91CF910895CF9378
:10019000DF93CDB7DEB781E890E0FC01108200006C
:1001A000DF91CF910895CF93DF93CDB7DEB781E094
:1001B000809314010000DF91CF9108951F920F9258
:1001C00000905F000F92112400905B000F922F931C
:1001D0003F934F935F936F937F938F939F93AF93CF
:1001E000BF93EF93FF93CF93DF93CDB7DEB78091AB
:1001F000150190911601A0911701B0911801019776
:10020000A109B1098093150190931601A0931701DC
:10021000B09318018091150190911601A0911701DA
:10022000B0911801892B8A2B8B2B91F40E94D3005B
:1002300080910E0190910F01A0911001B0911101D8
:100240008093150190931601A0931701B0931801A4
:100250000000DF91CF91FF91EF91BF91AF919F91FE
:100260008F917F916F915F914F913F912F910F905F
:1002700000925B000F9000925F000F901F90189506
:10028000CF93DF9300D000D0CDB7DEB769837A83F8
:100290008B839C8389819A81AB81BC8180930E0181
:1002A00090930F01A0931001B093110180910E0162
:1002B00090910F01A0911001B0911101809315014F
:1002C00090931601A0931701B093180100000F90AE
:1002D0000F900F900F90DF91CF910895CF93DF9300
:1002E0001F92CDB7DEB780E290E0FC01808180955F
:1002F000898380911A0190911B018230910509F444
:10030000E6C08330910528F4009759F00197C1F0B9
:10031000A4C18330910509F474C0049709F43DC168
:100320009CC185E290E020911201FC01208381E0D4
:1003300090E090931B0180931A011092190199C1CA
:100340008981882F90E083709927892B49F481E077
:1003500090E090931B0180931A011092190182C1C1
:100360008981882F90E0837099270197C9F41092B2
:10037000190182E090E090931B0180931A01809113
:100380001201893008F06EC1809112018F5F809355
:10039000120185E290E020911201FC01208362C1EC
:1003A0008981882F90E0837099270297C9F483E0B0
:1003B00090E090931B0180931A0110921901809193
:1003C0001201882309F44EC180911201815080935B
:1003D000120185E290E020911201FC01208342C1CC
:1003E0001092190184E090E090931B0180931A0110
:1003F0001092120185E290E020911201FC0120830D
:1004000031C18981882F90E083709927892B49F425
:100410001092190181E090E090931B0180931A01E2
:1004200023C18981882F90E0837099270197C9F4AF
:1004300082E090E090931B0180931A0110921901C1
:1004400080911201893008F00FC1809112018F5FF5
:100450008093120185E290E020911201FC0120833B
:1004600003C18981882F90E0837099270297F1F466
:1004700083E090E090931B0180931A018091190111
:100480008A3009F0F1C0109219018091120188237D
:1004900009F4EAC08091120181508093120185E233
:1004A00090E020911201FC012083DEC0109219011E
:1004B00084E090E090931B0180931A011092120146
:1004C00085E290E020911201FC012083CDC089815A
:1004D000882F90E083709927892B49F481E090E080
:1004E00090931B0180931A0110921901BFC089815A
:1004F000882F90E0837099270197F1F482E090E0D3
:1005000090931B0180931A01809119018A3009F0A0
:10051000ADC01092190180911201893008F0A6C077
:10052000809112018F5F8093120185E290E020910B
:100530001201FC0120839AC08981882F90E083708A
:1005400099270297C9F483E090E090931B01809370
:100550001A011092190180911201882309F486C0B2
:100560008091120181508093120185E290E02091E8
:100570001201FC0120837AC01092190184E090E0FE
:1005800090931B0180931A011092120185E290E072
:1005900020911201FC01208369C08981882F90E09D
:1005A00083709927892B49F41092190181E090E01A
:1005B00090931B0180931A015BC08981882F90E082
:1005C000837099270197C9F41092190182E090E095
:1005D00090931B0180931A0180911201893008F0D9
:1005E00047C0809112018F5F8093120185E290E0F5
:1005F00020911201FC0120833BC08981882F90E06B
:10060000837099270297C1F41092190183E090E05A
:1006100090931B0180931A0180911201882341F16C
:100620008091120181508093120185E290E0209127
:100630001201FC0120831CC01092190184E090E09B
:1006400090931B0180931A011092120185E290E0B1
:1006500020911201FC0120830BC010921B0110920B
:100660001A0107C0000005C0000003C0000001C05F
:10067000000080911A0190911B0182309105A9F030
:100680008330910528F4009749F0019781F014C058
:100690008330910571F0049771F00EC085E290E00F
:1006A00020911201FC01208307C0000005C000005A
:1006B00003C0000001C0000000000F90DF91CF9147
:1006C0000895CF93DF93CDB7DEB784E290E02FEFAC
:1006D000FC01208385E290E0FC01108281E290E041
:1006E000FC01108282E290E02FEFFC01208364E69F
:1006F00070E080E090E00E9440010E949000109223
:100700001B0110921A010E946E01000080911401D9
:100710008823E1F310921401809119018F5F809377
:080720001901F1CFF894FFCF9D
:100728000000000200000000670000000000010057
:0407380000000700B6
:00000001FF
